{
  "_format": "hh-sol-artifact-1",
  "contractName": "OnePeeNFT",
  "sourceName": "contracts/OnePeeNFT.sol",
  "abi": [
    {
      "inputs": [],
      "stateMutability": "payable",
      "type": "constructor"
    },
    {
      "inputs": [],
      "name": "ApprovalCallerNotOwnerNorApproved",
      "type": "error"
    },
    {
      "inputs": [],
      "name": "ApprovalQueryForNonexistentToken",
      "type": "error"
    },
    {
      "inputs": [],
      "name": "ApproveToCaller",
      "type": "error"
    },
    {
      "inputs": [],
      "name": "BalanceQueryForZeroAddress",
      "type": "error"
    },
    {
      "inputs": [],
      "name": "MintERC2309QuantityExceedsLimit",
      "type": "error"
    },
    {
      "inputs": [],
      "name": "MintToZeroAddress",
      "type": "error"
    },
    {
      "inputs": [],
      "name": "MintZeroQuantity",
      "type": "error"
    },
    {
      "inputs": [],
      "name": "OwnerQueryForNonexistentToken",
      "type": "error"
    },
    {
      "inputs": [],
      "name": "OwnershipNotInitializedForExtraData",
      "type": "error"
    },
    {
      "inputs": [],
      "name": "TransferCallerNotOwnerNorApproved",
      "type": "error"
    },
    {
      "inputs": [],
      "name": "TransferFromIncorrectOwner",
      "type": "error"
    },
    {
      "inputs": [],
      "name": "TransferToNonERC721ReceiverImplementer",
      "type": "error"
    },
    {
      "inputs": [],
      "name": "TransferToZeroAddress",
      "type": "error"
    },
    {
      "inputs": [],
      "name": "URIQueryForNonexistentToken",
      "type": "error"
    },
    {
      "anonymous": false,
      "inputs": [
        {
          "indexed": true,
          "internalType": "address",
          "name": "owner",
          "type": "address"
        },
        {
          "indexed": true,
          "internalType": "address",
          "name": "approved",
          "type": "address"
        },
        {
          "indexed": true,
          "internalType": "uint256",
          "name": "tokenId",
          "type": "uint256"
        }
      ],
      "name": "Approval",
      "type": "event"
    },
    {
      "anonymous": false,
      "inputs": [
        {
          "indexed": true,
          "internalType": "address",
          "name": "owner",
          "type": "address"
        },
        {
          "indexed": true,
          "internalType": "address",
          "name": "operator",
          "type": "address"
        },
        {
          "indexed": false,
          "internalType": "bool",
          "name": "approved",
          "type": "bool"
        }
      ],
      "name": "ApprovalForAll",
      "type": "event"
    },
    {
      "anonymous": false,
      "inputs": [
        {
          "indexed": true,
          "internalType": "uint256",
          "name": "fromTokenId",
          "type": "uint256"
        },
        {
          "indexed": false,
          "internalType": "uint256",
          "name": "toTokenId",
          "type": "uint256"
        },
        {
          "indexed": true,
          "internalType": "address",
          "name": "from",
          "type": "address"
        },
        {
          "indexed": true,
          "internalType": "address",
          "name": "to",
          "type": "address"
        }
      ],
      "name": "ConsecutiveTransfer",
      "type": "event"
    },
    {
      "anonymous": false,
      "inputs": [
        {
          "indexed": true,
          "internalType": "address",
          "name": "previousOwner",
          "type": "address"
        },
        {
          "indexed": true,
          "internalType": "address",
          "name": "newOwner",
          "type": "address"
        }
      ],
      "name": "OwnershipTransferred",
      "type": "event"
    },
    {
      "anonymous": false,
      "inputs": [
        {
          "indexed": true,
          "internalType": "address",
          "name": "from",
          "type": "address"
        },
        {
          "indexed": true,
          "internalType": "address",
          "name": "to",
          "type": "address"
        },
        {
          "indexed": true,
          "internalType": "uint256",
          "name": "tokenId",
          "type": "uint256"
        }
      ],
      "name": "Transfer",
      "type": "event"
    },
    {
      "inputs": [
        {
          "internalType": "address",
          "name": "to",
          "type": "address"
        },
        {
          "internalType": "uint256",
          "name": "tokenId",
          "type": "uint256"
        }
      ],
      "name": "approve",
      "outputs": [],
      "stateMutability": "nonpayable",
      "type": "function"
    },
    {
      "inputs": [
        {
          "internalType": "address",
          "name": "owner",
          "type": "address"
        }
      ],
      "name": "balanceOf",
      "outputs": [
        {
          "internalType": "uint256",
          "name": "",
          "type": "uint256"
        }
      ],
      "stateMutability": "view",
      "type": "function"
    },
    {
      "inputs": [
        {
          "internalType": "uint256",
          "name": "tokenId",
          "type": "uint256"
        }
      ],
      "name": "getApproved",
      "outputs": [
        {
          "internalType": "address",
          "name": "",
          "type": "address"
        }
      ],
      "stateMutability": "view",
      "type": "function"
    },
    {
      "inputs": [
        {
          "internalType": "address",
          "name": "owner",
          "type": "address"
        },
        {
          "internalType": "address",
          "name": "operator",
          "type": "address"
        }
      ],
      "name": "isApprovedForAll",
      "outputs": [
        {
          "internalType": "bool",
          "name": "",
          "type": "bool"
        }
      ],
      "stateMutability": "view",
      "type": "function"
    },
    {
      "inputs": [],
      "name": "isPublicMintEnalbed",
      "outputs": [
        {
          "internalType": "bool",
          "name": "",
          "type": "bool"
        }
      ],
      "stateMutability": "view",
      "type": "function"
    },
    {
      "inputs": [],
      "name": "isWhiteListMintEnabled",
      "outputs": [
        {
          "internalType": "bool",
          "name": "",
          "type": "bool"
        }
      ],
      "stateMutability": "view",
      "type": "function"
    },
    {
      "inputs": [],
      "name": "maxPerWallet",
      "outputs": [
        {
          "internalType": "uint256",
          "name": "",
          "type": "uint256"
        }
      ],
      "stateMutability": "view",
      "type": "function"
    },
    {
      "inputs": [],
      "name": "maxSupply",
      "outputs": [
        {
          "internalType": "uint256",
          "name": "",
          "type": "uint256"
        }
      ],
      "stateMutability": "view",
      "type": "function"
    },
    {
      "inputs": [
        {
          "internalType": "uint256",
          "name": "quantity_",
          "type": "uint256"
        }
      ],
      "name": "mint",
      "outputs": [],
      "stateMutability": "payable",
      "type": "function"
    },
    {
      "inputs": [],
      "name": "mintPrice",
      "outputs": [
        {
          "internalType": "uint256",
          "name": "",
          "type": "uint256"
        }
      ],
      "stateMutability": "view",
      "type": "function"
    },
    {
      "inputs": [],
      "name": "name",
      "outputs": [
        {
          "internalType": "string",
          "name": "",
          "type": "string"
        }
      ],
      "stateMutability": "view",
      "type": "function"
    },
    {
      "inputs": [],
      "name": "owner",
      "outputs": [
        {
          "internalType": "address",
          "name": "",
          "type": "address"
        }
      ],
      "stateMutability": "view",
      "type": "function"
    },
    {
      "inputs": [
        {
          "internalType": "uint256",
          "name": "tokenId",
          "type": "uint256"
        }
      ],
      "name": "ownerOf",
      "outputs": [
        {
          "internalType": "address",
          "name": "",
          "type": "address"
        }
      ],
      "stateMutability": "view",
      "type": "function"
    },
    {
      "inputs": [],
      "name": "renounceOwnership",
      "outputs": [],
      "stateMutability": "nonpayable",
      "type": "function"
    },
    {
      "inputs": [
        {
          "internalType": "address",
          "name": "from",
          "type": "address"
        },
        {
          "internalType": "address",
          "name": "to",
          "type": "address"
        },
        {
          "internalType": "uint256",
          "name": "tokenId",
          "type": "uint256"
        }
      ],
      "name": "safeTransferFrom",
      "outputs": [],
      "stateMutability": "nonpayable",
      "type": "function"
    },
    {
      "inputs": [
        {
          "internalType": "address",
          "name": "from",
          "type": "address"
        },
        {
          "internalType": "address",
          "name": "to",
          "type": "address"
        },
        {
          "internalType": "uint256",
          "name": "tokenId",
          "type": "uint256"
        },
        {
          "internalType": "bytes",
          "name": "_data",
          "type": "bytes"
        }
      ],
      "name": "safeTransferFrom",
      "outputs": [],
      "stateMutability": "nonpayable",
      "type": "function"
    },
    {
      "inputs": [
        {
          "internalType": "address",
          "name": "operator",
          "type": "address"
        },
        {
          "internalType": "bool",
          "name": "approved",
          "type": "bool"
        }
      ],
      "name": "setApprovalForAll",
      "outputs": [],
      "stateMutability": "nonpayable",
      "type": "function"
    },
    {
      "inputs": [
        {
          "internalType": "string",
          "name": "baseTokenUri_",
          "type": "string"
        }
      ],
      "name": "setBaseTokenUri",
      "outputs": [],
      "stateMutability": "nonpayable",
      "type": "function"
    },
    {
      "inputs": [
        {
          "internalType": "bool",
          "name": "isPublicMintEnalbed_",
          "type": "bool"
        }
      ],
      "name": "setIsPublicMintEnabled",
      "outputs": [],
      "stateMutability": "nonpayable",
      "type": "function"
    },
    {
      "inputs": [
        {
          "internalType": "bool",
          "name": "isWhiteListMintEnabled_",
          "type": "bool"
        }
      ],
      "name": "setIsWhiteListMintEnabled",
      "outputs": [],
      "stateMutability": "nonpayable",
      "type": "function"
    },
    {
      "inputs": [
        {
          "internalType": "uint256",
          "name": "_price",
          "type": "uint256"
        }
      ],
      "name": "setMintPrice",
      "outputs": [],
      "stateMutability": "nonpayable",
      "type": "function"
    },
    {
      "inputs": [
        {
          "internalType": "address[]",
          "name": "_whiteList",
          "type": "address[]"
        }
      ],
      "name": "setWhiteList",
      "outputs": [],
      "stateMutability": "nonpayable",
      "type": "function"
    },
    {
      "inputs": [
        {
          "internalType": "bytes4",
          "name": "interfaceId",
          "type": "bytes4"
        }
      ],
      "name": "supportsInterface",
      "outputs": [
        {
          "internalType": "bool",
          "name": "",
          "type": "bool"
        }
      ],
      "stateMutability": "view",
      "type": "function"
    },
    {
      "inputs": [],
      "name": "symbol",
      "outputs": [
        {
          "internalType": "string",
          "name": "",
          "type": "string"
        }
      ],
      "stateMutability": "view",
      "type": "function"
    },
    {
      "inputs": [],
      "name": "teamMint",
      "outputs": [],
      "stateMutability": "nonpayable",
      "type": "function"
    },
    {
      "inputs": [],
      "name": "teamSupply",
      "outputs": [
        {
          "internalType": "uint256",
          "name": "",
          "type": "uint256"
        }
      ],
      "stateMutability": "view",
      "type": "function"
    },
    {
      "inputs": [
        {
          "internalType": "uint256",
          "name": "tokenId_",
          "type": "uint256"
        }
      ],
      "name": "tokenURI",
      "outputs": [
        {
          "internalType": "string",
          "name": "",
          "type": "string"
        }
      ],
      "stateMutability": "view",
      "type": "function"
    },
    {
      "inputs": [],
      "name": "totalSupply",
      "outputs": [
        {
          "internalType": "uint256",
          "name": "",
          "type": "uint256"
        }
      ],
      "stateMutability": "view",
      "type": "function"
    },
    {
      "inputs": [
        {
          "internalType": "address",
          "name": "from",
          "type": "address"
        },
        {
          "internalType": "address",
          "name": "to",
          "type": "address"
        },
        {
          "internalType": "uint256",
          "name": "tokenId",
          "type": "uint256"
        }
      ],
      "name": "transferFrom",
      "outputs": [],
      "stateMutability": "nonpayable",
      "type": "function"
    },
    {
      "inputs": [
        {
          "internalType": "address",
          "name": "newOwner",
          "type": "address"
        }
      ],
      "name": "transferOwnership",
      "outputs": [],
      "stateMutability": "nonpayable",
      "type": "function"
    },
    {
      "inputs": [
        {
          "internalType": "address",
          "name": "",
          "type": "address"
        }
      ],
      "name": "walletMints",
      "outputs": [
        {
          "internalType": "uint256",
          "name": "",
          "type": "uint256"
        }
      ],
      "stateMutability": "view",
      "type": "function"
    },
    {
      "inputs": [
        {
          "internalType": "address",
          "name": "",
          "type": "address"
        }
      ],
      "name": "whiteList",
      "outputs": [
        {
          "internalType": "bool",
          "name": "",
          "type": "bool"
        }
      ],
      "stateMutability": "view",
      "type": "function"
    },
    {
      "inputs": [],
      "name": "whiteListNum",
      "outputs": [
        {
          "internalType": "uint256",
          "name": "",
          "type": "uint256"
        }
      ],
      "stateMutability": "view",
      "type": "function"
    },
    {
      "inputs": [],
      "name": "withdraw",
      "outputs": [],
      "stateMutability": "nonpayable",
      "type": "function"
    },
    {
      "inputs": [],
      "name": "withdrawWallet",
      "outputs": [
        {
          "internalType": "address payable",
          "name": "",
          "type": "address"
        }
      ],
      "stateMutability": "view",
      "type": "function"
    }
  ],
  "bytecode": "0x60806040526040518060400160405280600781526020017f4f6e6550656573000000000000000000000000000000000000000000000000008152506040518060400160405280600481526020017f4f5065650000000000000000000000000000000000000000000000000000000081525081600290805190602001906200008892919062000222565b508060039080519060200190620000a192919062000222565b50620000b26200014f60201b60201c565b6000819055505050620000da620000ce6200015460201b60201c565b6200015c60201b60201c565b600160098190555066038d7ea4c68000600a819055506014600b81905550600f600c819055506005600d8190555033601060006101000a81548173ffffffffffffffffffffffffffffffffffffffff021916908373ffffffffffffffffffffffffffffffffffffffff16021790555062000337565b600090565b600033905090565b6000600860009054906101000a900473ffffffffffffffffffffffffffffffffffffffff16905081600860006101000a81548173ffffffffffffffffffffffffffffffffffffffff021916908373ffffffffffffffffffffffffffffffffffffffff1602179055508173ffffffffffffffffffffffffffffffffffffffff168173ffffffffffffffffffffffffffffffffffffffff167f8be0079c531659141344cd1fd0a4f28419497f9722a3daafe3b4186f6b6457e060405160405180910390a35050565b8280546200023090620002d2565b90600052602060002090601f016020900481019282620002545760008555620002a0565b82601f106200026f57805160ff1916838001178555620002a0565b82800160010185558215620002a0579182015b828111156200029f57825182559160200191906001019062000282565b5b509050620002af9190620002b3565b5090565b5b80821115620002ce576000816000905550600101620002b4565b5090565b60006002820490506001821680620002eb57607f821691505b6020821081141562000302576200030162000308565b5b50919050565b7f4e487b7100000000000000000000000000000000000000000000000000000000600052602260045260246000fd5b61351e80620003476000396000f3fe6080604052600436106102045760003560e01c8063715018a611610118578063b88d4fde116100a0578063e470fe541161006f578063e470fe5414610724578063e985e9c51461074d578063f0293fd31461078a578063f2fde38b146107c7578063f4a0a528146107f057610204565b8063b88d4fde1461067c578063ba7a86b8146106a5578063c87b56dd146106bc578063d5abeb01146106f957610204565b806391ec1c44116100e757806391ec1c44146105b857806395652cfa146105e357806395d89b411461060c578063a0712d6814610637578063a22cb4651461065357610204565b8063715018a614610522578063775b9c131461053957806385d178f4146105625780638da5cb5b1461058d57610204565b80632cfac6ec1161019b578063453c23101161016a578063453c2310146104275780634af7d7d2146104525780636352211e1461047d5780636817c76c146104ba57806370a08231146104e557610204565b80632cfac6ec1461037f578063372c12b1146103aa5780633ccfd60b146103e757806342842e0e146103fe57610204565b806318160ddd116101d757806318160ddd146102d75780631c79b49d146103025780632373ac221461032d57806323b872dd1461035657610204565b806301ffc9a71461020957806306fdde0314610246578063081812fc14610271578063095ea7b3146102ae575b600080fd5b34801561021557600080fd5b50610230600480360381019061022b91906127d4565b610819565b60405161023d9190612c7f565b60405180910390f35b34801561025257600080fd5b5061025b6108ab565b6040516102689190612c9a565b60405180910390f35b34801561027d57600080fd5b506102986004803603810190610293919061286b565b61093d565b6040516102a59190612bfd565b60405180910390f35b3480156102ba57600080fd5b506102d560048036038101906102d0919061272a565b6109bc565b005b3480156102e357600080fd5b506102ec610b00565b6040516102f99190612e1c565b60405180910390f35b34801561030e57600080fd5b50610317610b17565b6040516103249190612c7f565b60405180910390f35b34801561033957600080fd5b50610354600480360381019061034f91906127ab565b610b2a565b005b34801561036257600080fd5b5061037d60048036038101906103789190612624565b610b6a565b005b34801561038b57600080fd5b50610394610e8f565b6040516103a19190612e1c565b60405180910390f35b3480156103b657600080fd5b506103d160048036038101906103cc91906125bf565b610e95565b6040516103de9190612c7f565b60405180910390f35b3480156103f357600080fd5b506103fc610eb5565b005b34801561040a57600080fd5b5061042560048036038101906104209190612624565b610fe4565b005b34801561043357600080fd5b5061043c611004565b6040516104499190612e1c565b60405180910390f35b34801561045e57600080fd5b5061046761100a565b6040516104749190612c7f565b60405180910390f35b34801561048957600080fd5b506104a4600480360381019061049f919061286b565b61101d565b6040516104b19190612bfd565b60405180910390f35b3480156104c657600080fd5b506104cf61102f565b6040516104dc9190612e1c565b60405180910390f35b3480156104f157600080fd5b5061050c600480360381019061050791906125bf565b611035565b6040516105199190612e1c565b60405180910390f35b34801561052e57600080fd5b506105376110ee565b005b34801561054557600080fd5b50610560600480360381019061055b9190612766565b611102565b005b34801561056e57600080fd5b50610577611293565b6040516105849190612c18565b60405180910390f35b34801561059957600080fd5b506105a26112b9565b6040516105af9190612bfd565b60405180910390f35b3480156105c457600080fd5b506105cd6112e3565b6040516105da9190612e1c565b60405180910390f35b3480156105ef57600080fd5b5061060a60048036038101906106059190612826565b6112e9565b005b34801561061857600080fd5b50610621611307565b60405161062e9190612c9a565b60405180910390f35b610651600480360381019061064c919061286b565b611399565b005b34801561065f57600080fd5b5061067a600480360381019061067591906126ee565b61162f565b005b34801561068857600080fd5b506106a3600480360381019061069e9190612673565b6117a7565b005b3480156106b157600080fd5b506106ba61181a565b005b3480156106c857600080fd5b506106e360048036038101906106de919061286b565b6118e0565b6040516106f09190612c9a565b60405180910390f35b34801561070557600080fd5b5061070e61195c565b60405161071b9190612e1c565b60405180910390f35b34801561073057600080fd5b5061074b600480360381019061074691906127ab565b611962565b005b34801561075957600080fd5b50610774600480360381019061076f91906125e8565b611987565b6040516107819190612c7f565b60405180910390f35b34801561079657600080fd5b506107b160048036038101906107ac91906125bf565b611a1b565b6040516107be9190612e1c565b60405180910390f35b3480156107d357600080fd5b506107ee60048036038101906107e991906125bf565b611a33565b005b3480156107fc57600080fd5b506108176004803603810190610812919061286b565b611ab7565b005b60006301ffc9a760e01b827bffffffffffffffffffffffffffffffffffffffffffffffffffffffff1916148061087457506380ac58cd60e01b827bffffffffffffffffffffffffffffffffffffffffffffffffffffffff1916145b806108a45750635b5e139f60e01b827bffffffffffffffffffffffffffffffffffffffffffffffffffffffff1916145b9050919050565b6060600280546108ba906130cd565b80601f01602080910402602001604051908101604052809291908181526020018280546108e6906130cd565b80156109335780601f1061090857610100808354040283529160200191610933565b820191906000526020600020905b81548152906001019060200180831161091657829003601f168201915b5050505050905090565b600061094882611ac9565b61097e576040517fcf4700e400000000000000000000000000000000000000000000000000000000815260040160405180910390fd5b6006600083815260200190815260200160002060000160009054906101000a900473ffffffffffffffffffffffffffffffffffffffff169050919050565b60006109c78261101d565b90508073ffffffffffffffffffffffffffffffffffffffff166109e8611b28565b73ffffffffffffffffffffffffffffffffffffffff1614610a4b57610a1481610a0f611b28565b611987565b610a4a576040517fcfb3b94200000000000000000000000000000000000000000000000000000000815260040160405180910390fd5b5b826006600084815260200190815260200160002060000160006101000a81548173ffffffffffffffffffffffffffffffffffffffff021916908373ffffffffffffffffffffffffffffffffffffffff160217905550818373ffffffffffffffffffffffffffffffffffffffff168273ffffffffffffffffffffffffffffffffffffffff167f8c5be1e5ebec7d5bd14f71427d1e84f3dd0314c0f7b2291e5b200ac8c7c3b92560405160405180910390a4505050565b6000610b0a611b30565b6001546000540303905090565b600e60019054906101000a900460ff1681565b610b32611b35565b80600e60006101000a81548160ff0219169083151502179055506001600e60016101000a81548160ff02191690831515021790555050565b6000610b7582611bb3565b90508373ffffffffffffffffffffffffffffffffffffffff168173ffffffffffffffffffffffffffffffffffffffff1614610bdc576040517fa114810000000000000000000000000000000000000000000000000000000000815260040160405180910390fd5b600080610be884611c81565b91509150610bfe8187610bf9611b28565b611ca8565b610c4a57610c1386610c0e611b28565b611987565b610c49576040517f59c896be00000000000000000000000000000000000000000000000000000000815260040160405180910390fd5b5b600073ffffffffffffffffffffffffffffffffffffffff168573ffffffffffffffffffffffffffffffffffffffff161415610cb1576040517fea553b3400000000000000000000000000000000000000000000000000000000815260040160405180910390fd5b610cbe8686866001611cec565b8015610cc957600082555b600560008773ffffffffffffffffffffffffffffffffffffffff1673ffffffffffffffffffffffffffffffffffffffff168152602001908152602001600020600081546001900391905081905550600560008673ffffffffffffffffffffffffffffffffffffffff1673ffffffffffffffffffffffffffffffffffffffff1681526020019081526020016000206000815460010191905081905550610d9785610d73888887611cf2565b7c020000000000000000000000000000000000000000000000000000000017611d1a565b600460008681526020019081526020016000208190555060007c020000000000000000000000000000000000000000000000000000000084161415610e1f576000600185019050600060046000838152602001908152602001600020541415610e1d576000548114610e1c578360046000838152602001908152602001600020819055505b5b505b838573ffffffffffffffffffffffffffffffffffffffff168773ffffffffffffffffffffffffffffffffffffffff167fddf252ad1be2c89b69c2b068fc378daa952ba7f163c4a11628f55a4df523b3ef60405160405180910390a4610e878686866001611d45565b505050505050565b600c5481565b60126020528060005260406000206000915054906101000a900460ff1681565b610ebd611b35565b60026009541415610f03576040517f08c379a0000000000000000000000000000000000000000000000000000000008152600401610efa90612dbc565b60405180910390fd5b60026009819055506000601060009054906101000a900473ffffffffffffffffffffffffffffffffffffffff1673ffffffffffffffffffffffffffffffffffffffff1647604051610f5390612be8565b60006040518083038185875af1925050503d8060008114610f90576040519150601f19603f3d011682016040523d82523d6000602084013e610f95565b606091505b5050905080610fd9576040517f08c379a0000000000000000000000000000000000000000000000000000000008152600401610fd090612dfc565b60405180910390fd5b506001600981905550565b610fff838383604051806020016040528060008152506117a7565b505050565b600d5481565b600e60009054906101000a900460ff1681565b600061102882611bb3565b9050919050565b600a5481565b60008073ffffffffffffffffffffffffffffffffffffffff168273ffffffffffffffffffffffffffffffffffffffff16141561109d576040517f8f4eb60400000000000000000000000000000000000000000000000000000000815260040160405180910390fd5b67ffffffffffffffff600560008473ffffffffffffffffffffffffffffffffffffffff1673ffffffffffffffffffffffffffffffffffffffff16815260200190815260200160002054169050919050565b6110f6611b35565b6111006000611d4b565b565b61110a611b35565b60005b8282905081101561128e576001151560126000858585818110611159577f4e487b7100000000000000000000000000000000000000000000000000000000600052603260045260246000fd5b905060200201602081019061116e91906125bf565b73ffffffffffffffffffffffffffffffffffffffff1673ffffffffffffffffffffffffffffffffffffffff16815260200190815260200160002060009054906101000a900460ff1615151461127b576001601260008585858181106111fc577f4e487b7100000000000000000000000000000000000000000000000000000000600052603260045260246000fd5b905060200201602081019061121191906125bf565b73ffffffffffffffffffffffffffffffffffffffff1673ffffffffffffffffffffffffffffffffffffffff16815260200190815260200160002060006101000a81548160ff0219169083151502179055506013600081548092919061127590613130565b91905055505b808061128690613130565b91505061110d565b505050565b601060009054906101000a900473ffffffffffffffffffffffffffffffffffffffff1681565b6000600860009054906101000a900473ffffffffffffffffffffffffffffffffffffffff16905090565b60135481565b6112f1611b35565b8181600f91906113029291906123b7565b505050565b606060038054611316906130cd565b80601f0160208091040260200160405190810160405280929190818152602001828054611342906130cd565b801561138f5780601f106113645761010080835404028352916020019161138f565b820191906000526020600020905b81548152906001019060200180831161137257829003601f168201915b5050505050905090565b600e60009054906101000a900460ff166113e8576040517f08c379a00000000000000000000000000000000000000000000000000000000081526004016113df90612cdc565b60405180910390fd5b600e60019054906101000a900460ff161561148a57601260003373ffffffffffffffffffffffffffffffffffffffff1673ffffffffffffffffffffffffffffffffffffffff16815260200190815260200160002060009054906101000a900460ff16611489576040517f08c379a000000000000000000000000000000000000000000000000000000000815260040161148090612d1c565b60405180910390fd5b5b600a54816114989190612f77565b34146114d9576040517f08c379a00000000000000000000000000000000000000000000000000000000081526004016114d090612cbc565b60405180910390fd5b600c54600b546114e99190612fd1565b816114f2610b00565b6114fc9190612ef0565b111561153d576040517f08c379a000000000000000000000000000000000000000000000000000000000815260040161153490612d3c565b60405180910390fd5b600d5481601160003373ffffffffffffffffffffffffffffffffffffffff1673ffffffffffffffffffffffffffffffffffffffff1681526020019081526020016000205461158b9190612ef0565b11156115cc576040517f08c379a00000000000000000000000000000000000000000000000000000000081526004016115c390612d7c565b60405180910390fd5b80601160003373ffffffffffffffffffffffffffffffffffffffff1673ffffffffffffffffffffffffffffffffffffffff168152602001908152602001600020600082825461161b9190612ef0565b9250508190555061162c3382611e11565b50565b611637611b28565b73ffffffffffffffffffffffffffffffffffffffff168273ffffffffffffffffffffffffffffffffffffffff16141561169c576040517fb06307db00000000000000000000000000000000000000000000000000000000815260040160405180910390fd5b80600760006116a9611b28565b73ffffffffffffffffffffffffffffffffffffffff1673ffffffffffffffffffffffffffffffffffffffff16815260200190815260200160002060008473ffffffffffffffffffffffffffffffffffffffff1673ffffffffffffffffffffffffffffffffffffffff16815260200190815260200160002060006101000a81548160ff0219169083151502179055508173ffffffffffffffffffffffffffffffffffffffff16611756611b28565b73ffffffffffffffffffffffffffffffffffffffff167f17307eab39ab6107e8899845ad3d59bd9653f200f220920489ca2b5937696c318360405161179b9190612c7f565b60405180910390a35050565b6117b2848484610b6a565b60008373ffffffffffffffffffffffffffffffffffffffff163b14611814576117dd84848484611e2f565b611813576040517fd1a57ed600000000000000000000000000000000000000000000000000000000815260040160405180910390fd5b5b50505050565b611822611b35565b600c54600b546118329190612fd1565b61183a610b00565b1461187a576040517f08c379a000000000000000000000000000000000000000000000000000000000815260040161187190612d5c565b60405180910390fd5b600c54601160003373ffffffffffffffffffffffffffffffffffffffff1673ffffffffffffffffffffffffffffffffffffffff16815260200190815260200160002060008282546118cb9190612ef0565b925050819055506118de33600c54611e11565b565b60606118eb82611ac9565b61192a576040517f08c379a000000000000000000000000000000000000000000000000000000000815260040161192190612ddc565b60405180910390fd5b600f61193583611f8f565b604051602001611946929190612bb9565b6040516020818303038152906040529050919050565b600b5481565b61196a611b35565b80600e60016101000a81548160ff02191690831515021790555050565b6000600760008473ffffffffffffffffffffffffffffffffffffffff1673ffffffffffffffffffffffffffffffffffffffff16815260200190815260200160002060008373ffffffffffffffffffffffffffffffffffffffff1673ffffffffffffffffffffffffffffffffffffffff16815260200190815260200160002060009054906101000a900460ff16905092915050565b60116020528060005260406000206000915090505481565b611a3b611b35565b600073ffffffffffffffffffffffffffffffffffffffff168173ffffffffffffffffffffffffffffffffffffffff161415611aab576040517f08c379a0000000000000000000000000000000000000000000000000000000008152600401611aa290612cfc565b60405180910390fd5b611ab481611d4b565b50565b611abf611b35565b80600a8190555050565b600081611ad4611b30565b11158015611ae3575060005482105b8015611b21575060007c0100000000000000000000000000000000000000000000000000000000600460008581526020019081526020016000205416145b9050919050565b600033905090565b600090565b611b3d61213c565b73ffffffffffffffffffffffffffffffffffffffff16611b5b6112b9565b73ffffffffffffffffffffffffffffffffffffffff1614611bb1576040517f08c379a0000000000000000000000000000000000000000000000000000000008152600401611ba890612d9c565b60405180910390fd5b565b60008082905080611bc2611b30565b11611c4a57600054811015611c495760006004600083815260200190815260200160002054905060007c010000000000000000000000000000000000000000000000000000000082161415611c47575b6000811415611c3d576004600083600190039350838152602001908152602001600020549050611c12565b8092505050611c7c565b505b5b6040517fdf2d9b4200000000000000000000000000000000000000000000000000000000815260040160405180910390fd5b919050565b60008060006006600085815260200190815260200160002090508092508254915050915091565b600073ffffffffffffffffffffffffffffffffffffffff8316925073ffffffffffffffffffffffffffffffffffffffff821691508382148383141790509392505050565b50505050565b60008060e883901c905060e8611d09868684612144565b62ffffff16901b9150509392505050565b600073ffffffffffffffffffffffffffffffffffffffff83169250814260a01b178317905092915050565b50505050565b6000600860009054906101000a900473ffffffffffffffffffffffffffffffffffffffff16905081600860006101000a81548173ffffffffffffffffffffffffffffffffffffffff021916908373ffffffffffffffffffffffffffffffffffffffff1602179055508173ffffffffffffffffffffffffffffffffffffffff168173ffffffffffffffffffffffffffffffffffffffff167f8be0079c531659141344cd1fd0a4f28419497f9722a3daafe3b4186f6b6457e060405160405180910390a35050565b611e2b82826040518060200160405280600081525061214d565b5050565b60008373ffffffffffffffffffffffffffffffffffffffff1663150b7a02611e55611b28565b8786866040518563ffffffff1660e01b8152600401611e779493929190612c33565b602060405180830381600087803b158015611e9157600080fd5b505af1925050508015611ec257506040513d601f19601f82011682018060405250810190611ebf91906127fd565b60015b611f3c573d8060008114611ef2576040519150601f19603f3d011682016040523d82523d6000602084013e611ef7565b606091505b50600081511415611f34576040517fd1a57ed600000000000000000000000000000000000000000000000000000000815260040160405180910390fd5b805181602001fd5b63150b7a0260e01b7bffffffffffffffffffffffffffffffffffffffffffffffffffffffff1916817bffffffffffffffffffffffffffffffffffffffffffffffffffffffff191614915050949350505050565b60606000821415611fd7576040518060400160405280600181526020017f30000000000000000000000000000000000000000000000000000000000000008152509050612137565b600082905060005b60008214612009578080611ff290613130565b915050600a826120029190612f46565b9150611fdf565b60008167ffffffffffffffff81111561204b577f4e487b7100000000000000000000000000000000000000000000000000000000600052604160045260246000fd5b6040519080825280601f01601f19166020018201604052801561207d5781602001600182028036833780820191505090505b5090505b60008514612130576001826120969190612fd1565b9150600a856120a59190613179565b60306120b19190612ef0565b60f81b8183815181106120ed577f4e487b7100000000000000000000000000000000000000000000000000000000600052603260045260246000fd5b60200101907effffffffffffffffffffffffffffffffffffffffffffffffffffffffffffff1916908160001a905350600a856121299190612f46565b9450612081565b8093505050505b919050565b600033905090565b60009392505050565b61215783836121ea565b60008373ffffffffffffffffffffffffffffffffffffffff163b146121e557600080549050600083820390505b6121976000868380600101945086611e2f565b6121cd576040517fd1a57ed600000000000000000000000000000000000000000000000000000000815260040160405180910390fd5b8181106121845781600054146121e257600080fd5b50505b505050565b600080549050600082141561222b576040517fb562e8dd00000000000000000000000000000000000000000000000000000000815260040160405180910390fd5b6122386000848385611cec565b600160406001901b178202600560008573ffffffffffffffffffffffffffffffffffffffff1673ffffffffffffffffffffffffffffffffffffffff168152602001908152602001600020600082825401925050819055506122af836122a06000866000611cf2565b6122a9856123a7565b17611d1a565b6004600083815260200190815260200160002081905550600080838301905073ffffffffffffffffffffffffffffffffffffffff85169150828260007fddf252ad1be2c89b69c2b068fc378daa952ba7f163c4a11628f55a4df523b3ef600080a4600183015b81811461235057808360007fddf252ad1be2c89b69c2b068fc378daa952ba7f163c4a11628f55a4df523b3ef600080a4600181019050612315565b50600082141561238c576040517f2e07630000000000000000000000000000000000000000000000000000000000815260040160405180910390fd5b8060008190555050506123a26000848385611d45565b505050565b60006001821460e11b9050919050565b8280546123c3906130cd565b90600052602060002090601f0160209004810192826123e5576000855561242c565b82601f106123fe57803560ff191683800117855561242c565b8280016001018555821561242c579182015b8281111561242b578235825591602001919060010190612410565b5b509050612439919061243d565b5090565b5b8082111561245657600081600090555060010161243e565b5090565b600061246d61246884612e5c565b612e37565b90508281526020810184848401111561248557600080fd5b61249084828561308b565b509392505050565b6000813590506124a78161348c565b92915050565b60008083601f8401126124bf57600080fd5b8235905067ffffffffffffffff8111156124d857600080fd5b6020830191508360208202830111156124f057600080fd5b9250929050565b600081359050612506816134a3565b92915050565b60008135905061251b816134ba565b92915050565b600081519050612530816134ba565b92915050565b600082601f83011261254757600080fd5b813561255784826020860161245a565b91505092915050565b60008083601f84011261257257600080fd5b8235905067ffffffffffffffff81111561258b57600080fd5b6020830191508360018202830111156125a357600080fd5b9250929050565b6000813590506125b9816134d1565b92915050565b6000602082840312156125d157600080fd5b60006125df84828501612498565b91505092915050565b600080604083850312156125fb57600080fd5b600061260985828601612498565b925050602061261a85828601612498565b9150509250929050565b60008060006060848603121561263957600080fd5b600061264786828701612498565b935050602061265886828701612498565b9250506040612669868287016125aa565b9150509250925092565b6000806000806080858703121561268957600080fd5b600061269787828801612498565b94505060206126a887828801612498565b93505060406126b9878288016125aa565b925050606085013567ffffffffffffffff8111156126d657600080fd5b6126e287828801612536565b91505092959194509250565b6000806040838503121561270157600080fd5b600061270f85828601612498565b9250506020612720858286016124f7565b9150509250929050565b6000806040838503121561273d57600080fd5b600061274b85828601612498565b925050602061275c858286016125aa565b9150509250929050565b6000806020838503121561277957600080fd5b600083013567ffffffffffffffff81111561279357600080fd5b61279f858286016124ad565b92509250509250929050565b6000602082840312156127bd57600080fd5b60006127cb848285016124f7565b91505092915050565b6000602082840312156127e657600080fd5b60006127f48482850161250c565b91505092915050565b60006020828403121561280f57600080fd5b600061281d84828501612521565b91505092915050565b6000806020838503121561283957600080fd5b600083013567ffffffffffffffff81111561285357600080fd5b61285f85828601612560565b92509250509250929050565b60006020828403121561287d57600080fd5b600061288b848285016125aa565b91505092915050565b61289d81613017565b82525050565b6128ac81613005565b82525050565b6128bb81613029565b82525050565b60006128cc82612ea2565b6128d68185612eb8565b93506128e681856020860161309a565b6128ef81613266565b840191505092915050565b600061290582612ead565b61290f8185612ed4565b935061291f81856020860161309a565b61292881613266565b840191505092915050565b600061293e82612ead565b6129488185612ee5565b935061295881856020860161309a565b80840191505092915050565b60008154612971816130cd565b61297b8186612ee5565b9450600182166000811461299657600181146129a7576129da565b60ff198316865281860193506129da565b6129b085612e8d565b60005b838110156129d2578154818901526001820191506020810190506129b3565b838801955050505b50505092915050565b60006129f0601083612ed4565b91506129fb82613277565b602082019050919050565b6000612a13601383612ed4565b9150612a1e826132a0565b602082019050919050565b6000612a36602683612ed4565b9150612a41826132c9565b604082019050919050565b6000612a59601183612ed4565b9150612a6482613318565b602082019050919050565b6000612a7c600883612ed4565b9150612a8782613341565b602082019050919050565b6000612a9f600d83612ed4565b9150612aaa8261336a565b602082019050919050565b6000612ac2600583612ee5565b9150612acd82613393565b600582019050919050565b6000612ae5601183612ed4565b9150612af0826133bc565b602082019050919050565b6000612b08602083612ed4565b9150612b13826133e5565b602082019050919050565b6000612b2b600083612ec9565b9150612b368261340e565b600082019050919050565b6000612b4e601f83612ed4565b9150612b5982613411565b602082019050919050565b6000612b71601583612ed4565b9150612b7c8261343a565b602082019050919050565b6000612b94600f83612ed4565b9150612b9f82613463565b602082019050919050565b612bb381613081565b82525050565b6000612bc58285612964565b9150612bd18284612933565b9150612bdc82612ab5565b91508190509392505050565b6000612bf382612b1e565b9150819050919050565b6000602082019050612c1260008301846128a3565b92915050565b6000602082019050612c2d6000830184612894565b92915050565b6000608082019050612c4860008301876128a3565b612c5560208301866128a3565b612c626040830185612baa565b8181036060830152612c7481846128c1565b905095945050505050565b6000602082019050612c9460008301846128b2565b92915050565b60006020820190508181036000830152612cb481846128fa565b905092915050565b60006020820190508181036000830152612cd5816129e3565b9050919050565b60006020820190508181036000830152612cf581612a06565b9050919050565b60006020820190508181036000830152612d1581612a29565b9050919050565b60006020820190508181036000830152612d3581612a4c565b9050919050565b60006020820190508181036000830152612d5581612a6f565b9050919050565b60006020820190508181036000830152612d7581612a92565b9050919050565b60006020820190508181036000830152612d9581612ad8565b9050919050565b60006020820190508181036000830152612db581612afb565b9050919050565b60006020820190508181036000830152612dd581612b41565b9050919050565b60006020820190508181036000830152612df581612b64565b9050919050565b60006020820190508181036000830152612e1581612b87565b9050919050565b6000602082019050612e316000830184612baa565b92915050565b6000612e41612e52565b9050612e4d82826130ff565b919050565b6000604051905090565b600067ffffffffffffffff821115612e7757612e76613237565b5b612e8082613266565b9050602081019050919050565b60008190508160005260206000209050919050565b600081519050919050565b600081519050919050565b600082825260208201905092915050565b600081905092915050565b600082825260208201905092915050565b600081905092915050565b6000612efb82613081565b9150612f0683613081565b9250827fffffffffffffffffffffffffffffffffffffffffffffffffffffffffffffffff03821115612f3b57612f3a6131aa565b5b828201905092915050565b6000612f5182613081565b9150612f5c83613081565b925082612f6c57612f6b6131d9565b5b828204905092915050565b6000612f8282613081565b9150612f8d83613081565b9250817fffffffffffffffffffffffffffffffffffffffffffffffffffffffffffffffff0483118215151615612fc657612fc56131aa565b5b828202905092915050565b6000612fdc82613081565b9150612fe783613081565b925082821015612ffa57612ff96131aa565b5b828203905092915050565b600061301082613061565b9050919050565b600061302282613061565b9050919050565b60008115159050919050565b60007fffffffff0000000000000000000000000000000000000000000000000000000082169050919050565b600073ffffffffffffffffffffffffffffffffffffffff82169050919050565b6000819050919050565b82818337600083830152505050565b60005b838110156130b857808201518184015260208101905061309d565b838111156130c7576000848401525b50505050565b600060028204905060018216806130e557607f821691505b602082108114156130f9576130f8613208565b5b50919050565b61310882613266565b810181811067ffffffffffffffff8211171561312757613126613237565b5b80604052505050565b600061313b82613081565b91507fffffffffffffffffffffffffffffffffffffffffffffffffffffffffffffffff82141561316e5761316d6131aa565b5b600182019050919050565b600061318482613081565b915061318f83613081565b92508261319f5761319e6131d9565b5b828206905092915050565b7f4e487b7100000000000000000000000000000000000000000000000000000000600052601160045260246000fd5b7f4e487b7100000000000000000000000000000000000000000000000000000000600052601260045260246000fd5b7f4e487b7100000000000000000000000000000000000000000000000000000000600052602260045260246000fd5b7f4e487b7100000000000000000000000000000000000000000000000000000000600052604160045260246000fd5b6000601f19601f8301169050919050565b7f77726f6e67206d696e742076616c756500000000000000000000000000000000600082015250565b7f6d696e74696e67206e6f7420656e61626c656400000000000000000000000000600082015250565b7f4f776e61626c653a206e6577206f776e657220697320746865207a65726f206160008201527f6464726573730000000000000000000000000000000000000000000000000000602082015250565b7f6e6f7420696e207768697465206c697374000000000000000000000000000000600082015250565b7f736f6c64206f7574000000000000000000000000000000000000000000000000600082015250565b7f7761697420736f6c64206f757400000000000000000000000000000000000000600082015250565b7f2e6a736f6e000000000000000000000000000000000000000000000000000000600082015250565b7f657863656564206d61782077616c6c6574000000000000000000000000000000600082015250565b7f4f776e61626c653a2063616c6c6572206973206e6f7420746865206f776e6572600082015250565b50565b7f5265656e7472616e637947756172643a207265656e7472616e742063616c6c00600082015250565b7f546f6b656e20646f6573206e6f74206578697374210000000000000000000000600082015250565b7f7769746864726177206661696c65640000000000000000000000000000000000600082015250565b61349581613005565b81146134a057600080fd5b50565b6134ac81613029565b81146134b757600080fd5b50565b6134c381613035565b81146134ce57600080fd5b50565b6134da81613081565b81146134e557600080fd5b5056fea2646970667358221220525ba5f92043a2b939e1eb9b8877f7ee9f219b736854b4edfa0030078f149a9464736f6c63430008040033",
  "linkReferences": {},
  "deployedLinkReferences": {}
}